:100000000C94EB000C941B090C9408010C9408014F
:100010000C9408010C9408010C9408010C9408013C
:100020000C9408010C9408010C9408010C9408012C
:100030000C9408010C9408010C9408010C9408011C
:100040000C9408010C9408010C9408010C9408010C
:100050000C94080123064B0683061409A806BC0667
:1000600012071409140915071409140914091409AD
:1000700014091B072607420754078C072608640843
:10008000D308E80818080B08F508AF060D090000AA
:10009000000000000000020006000E001200140024
:1000A0001500170018001A001B001D001E0020007C
:1000B000210024002600270029002C002D003000FC
:1000C0003200350038003B003E004100440047004C
:1000D0004B004E00530057005C0060006500690053
:1000E0006F0074007A00800087008D0095009C00EE
:1000F000A400AB00B400BD00C600D100DA00E600E9
:10010000F000FC00080116012301320141015201F7
:100110006201730186019801AD01C201D901EF01AD
:10012000090222023D025A0276029602B702D90261
:10013000FB0223034A0374039F03CC03FC032D0437
:1001400062049904D404110550059405DA052306C8
:100150007006C10616077007CE0730089608030917
:100160007309EB09680AEB0A720B020C9D0C3B0D3C
:10017000DE0D910E470F0810CB10A01181126D13E8
:100180005614561560168617A318DC191E1B811C01
:10019000EC1D5E1FD1208F222924EA25DA27C529EC
:1001A000E12BF22D3730B9322335CB374B3A073DAF
:1001B000074057436046654A1E4EE251F055345A97
:1001C000935E42632868426D8B722F78347E688418
:1001D000C18ABF91E09811241FBECFE5D8E0DEBFF1
:1001E000CDBF10E0A0E6B0E0ECE3F7E202C005907E
:1001F0000D92A039B107D9F712E0A0E9B0E001C033
:100200001D92AA33B107E1F70E9460050C949C137C
:100210000C94000087B38E7587BB18BA089588B315
:100220008E7188BBBE9887B3816A87BB0895E82F1B
:100230008091C1009091C200079728F4EFB9779B95
:10024000FECF7FB126C02091B8003091B90036951D
:10025000279560E870E040E050E0862F8E2311F093
:10026000C59A01C0C598C9010197F1F7C79AC9019C
:100270000197F1F7B699762BC9010197F1F7C79865
:10028000C9010197F1F766954F5F5F4F48305105FF
:1002900021F7872F08958DB19EB11DB81EB820910A
:1002A000B8003091B900F9013197F1F7C79AF90117
:1002B0003197F1F7C7988DB99EB90895FF920F93C2
:1002C0001F93162F072FF42E0E941701802F0E94D4
:1002D0001701812F0E9417018F2D0E9417011F9176
:1002E0000F91FF9008950E941701089580E00E94E9
:1002F000170108951F931FB7F8948091BF00909144
:10030000C000019749F48BE267E00E94640C1092F0
:10031000C0001092BF000AC08BE263E00E94640C30
:1003200081E090E09093C0008093BF001FBF1F91B9
:100330000895FF920F931F93082FFFB6F8948BE256
:1003400068E00E94640C10E009C0E12FF0E0E75380
:10035000FF4F608189E20E94640C1F5F1017A8F3B1
:100360000E947A01FFBE1F910F91FF900895CF92D6
:10037000DF92EF92FF920F931F93CF93DF938C0145
:10038000FC0181818D3348F482818D3330F4680122
:10039000EE24FF24C0E0D0E01EC08DE18093C900B0
:1003A00089EC8093CA0082E02FC0F60184810E940C
:1003B0001701282FF801838190E0E816F9062CF048
:1003C000FE01E553FF4F208321960894E11CF11CA8
:1003D0000894C11CD11CF801818190E0E816F9064F
:1003E00024F3828190E0C817D90714F480E0DFCFAE
:1003F0008DE18093C9001092CA00FE01E553FF4FC2
:1004000010829E012D5F822F0E949901DF91CF9172
:100410001F910F91FF90EF90DF90CF900895CF93B1
:10042000DF938091A1009091A200892B09F45CC018
:100430008BE268E00E94640C8091A1009091A20080
:100440008134910518F4C0E0D0E03DC0C0E0D0E0B8
:10045000E091C300F091C40026E0EE0FFF1F2A9543
:10046000E1F7EC0FFD1FE753FF4F608189E20E9427
:10047000640C2196C034D10559F78091C300909146
:10048000C40001969093C4008093C3008091A100A2
:100490009091A200805490409093A2008093A1007C
:1004A00021C0E091C300F091C40096E0EE0FFF1F61
:1004B0009A95E1F7EC0FFD1FE753FF4F608189E24A
:1004C0000E94640C21968091A1009091A200C8170F
:1004D000D90738F31092C4001092C3001092A20002
:1004E0001092A1000E947A01DF91CF910895FC0142
:1004F0008181813011F40E943C120895CF92DF92E5
:10050000EF92FF920F931F93CF93DF93EC01109222
:10051000AA001092AB001092AC001092AD001092A5
:10052000B2008FEF9FEF9093B7008093B600809159
:10053000B5008A7F8093B50088B38E7188BBBE9862
:1005400087B3816A87BBDC9AC7988091C700909176
:10055000C800019761F4C0988AE090E00E944412BC
:10056000C09A8AE090E00E944412C0980BC0C09AE2
:100570008AE090E00E944412C0988AE090E00E94D5
:100580004412C09A8AE090E00E94441280E1809375
:10059000C9008B8190E00E9444128C8100E010E041
:1005A000C82EDD2443C088850E9417018D8190E00C
:1005B0000E94441289850E9417018D8190E00E945B
:1005C00044128A850E941701E82E8D8190E00E94D6
:1005D00044128B850E941701F82E8D8190E00E94B5
:1005E00044128F81882359F0833021F48E81E816DC
:1005F00049F405C0843031F48E81F81619F4109254
:10060000CA001BC08DB19EB11DB81EB82091B800A4
:100610003091B900F9013197F1F7C79AF901319793
:10062000F1F7C7988DB99EB90F5F1F4FC016D1065D
:1006300009F0B9CF80EC8093CA0082E00E94990152
:10064000DF91CF911F910F91FF90EF90DF90CF90AE
:1006500008958F929F92AF92BF92CF92DF92EF92C6
:10066000FF920F931F93CF93DF93EC01D62E8091CF
:10067000BD009091BE00892B11F400E41AC02A96A7
:100680006623B1F085E18093C90089EE90E09093F4
:100690009100809390008091A1009091A2008D50D4
:1006A000914020F080EC8093CA0002C01092CA00F2
:1006B00006E38091A1009091A2008034910531F46D
:1006C00081E490E09093A2008093A1008091A1002A
:1006D0009091A200202F30E02817390768F4821B80
:1006E000930B9093A2008093A10081E090E09093FF
:1006F000BC008093BB0009C0082F1092A20010928A
:10070000A1001092BC001092BB00DD2041F180914D
:10071000CA00882309F05FC110E080919000909199
:100720009100BE01402F50E00E947E138091900006
:1007300090919100800F911F909391008093900071
:100740004AC18091CA00882309F03AC189EE90E03D
:1007500000919000081BC090A900EC0102C0C0905D
:10076000A800FF24EE2468EEA62E63E0B62E50E823
:10077000852E41E8942EB5C08091B50082FF1FC040
:100780008091AA009091AB00A091AC00B091AD0017
:100790009D01442755278091B6009091B700A0E0B5
:1007A000B0E0281739074A075B0749F03093B700D4
:1007B0002093B6008DE4B90140E00E945E01DD2087
:1007C00059F4F0FE04C08091A500886003C08091B8
:1007D000A500877F8093A5006091AA007091AB006F
:1007E0008091A50048810E945E018091A30080FD58
:1007F00045C083FF18C018ECC5010197F1F780EFE1
:1008000060E070E040E00E945E0190E09C01217099
:10081000307080FF02C0115079F7232B09F445C0D6
:100820009092B20042C082FF23C088818C1501F1F2
:10083000DD2059F4F0FE04C08091A700886003C059
:100840008091A700877F8093A70018ECC5010197CE
:10085000F1F76091AA007091AB008091A70040E091
:100860000E945E019881891701F1115079F7BBC090
:100870008091A40090E00E94441217C088818C15DA
:10088000A1F02091B50020FD10C08091AA009091A8
:10089000AB009093B4008093B3008E2D8170880FCD
:1008A0002D7F282B21602093B500DD2011F4F0FE70
:1008B00013C08091AA009091AB00A091AC00B091C0
:1008C000AD000196A11DB11D8093AA009093AB00CD
:1008D000A093AC00B093AD00F3942196E39481E033
:1008E000E822F01608F448CF8091A1009091A20070
:1008F000892B09F07BC08091A3008178813809F0B1
:1009000054C06091AE007091AF008091A60040E0AD
:100910000E945E018091A30086FF18C018ECC8EE0B
:10092000D3E0CE010197F1F780EF60E070E040E0A6
:100930000E945E0190E09C012170307080FF02C037
:10094000115079F7232B89F181E827C085FF28C052
:100950008091B50080FF24C0DD2059F481FF04C0E0
:100960008091A700886003C08091A700877F809353
:10097000A70018ECC8EED3E0CE010197F1F7609123
:10098000B3007091B4008091A70040E00E945E0126
:100990008C1559F4115081F780E88093B20005C09E
:1009A0008091A40090E00E944412DD2011F483E1C4
:1009B00001C085E18093C9008091B2008093CA0094
:1009C0001092B2008091B5008E7F8093B50082E0D6
:1009D0000E9499010BC08091A1009091A200892BE7
:1009E00009F4AFCE03C08092B2005FCFDF91CF9108
:1009F0001F910F91FF90EF90DF90CF90BF90AF903D
:100A00009F908F90089580E090E00E94871390E07F
:100A10009093C2008093C1008091C1009091C20068
:100A2000843A910530F083E090E09093C200809387
:100A3000C10088B38F7188BBBE9821EA27BBBC9ADE
:100A40001DB81EB8E091C100F091C200EE0FFF1F6B
:100A5000E257FF4F859194919093B9008093B8002D
:100A60008091C1009091C20083309105C1F0843023
:100A7000910530F48130910571F0029770F409C04E
:100A80008530910599F08530910558F00697A1F4CD
:100A90000FC080E507C083E505C081E503C081E59F
:100AA00008C082E58DB981E08EB9089582E501C064
:100AB00083E58DB91EB80895C798BE9827BB0895E1
:100AC0006F927F928F929F92AF92BF92CF92DF925E
:100AD000EF92FF920F93DF93CF9300D0CDB7DEB7A5
:100AE0000E94030587B38E7587BB18BA0E94780CE5
:100AF0001092BC001092BB0081E090E09093C60081
:100B00008093C5001092C4001092C3009093C80057
:100B10008093C7001092C0001092BF0080E18ABB92
:100B2000DC98C09A8BEE93E00E94C30C84E091E2C3
:100B30000E94C80C80E092E00E94CD0C89E089837D
:100B400084E08A83CE0101960E94BA1080E690E08C
:100B50000E94581189E690E00E9450118AE790E0C7
:100B60000E9448110E9490104C0162E370E00E94C4
:100B7000DB0CC40160E070E00E9406103C01C4017F
:100B8000B30140E050E00E94010DC401B30141E017
:100B900050E022E030E002E0A0E4EA2EF12CCC2488
:100BA000DD24FFE0AF2EF2E0BF2E0E949B0FC401B8
:100BB000B30141E050E022E030E0E9EEAE2EE5E0A6
:100BC000BE2E0E94D30F0E94360C78940E9487118B
:100BD000FFCFEF92FF920F931F93CF93DF93EC0120
:100BE0008BE260E00E94640C8BE268E00E94640C7F
:100BF0008091BB009091BC00892B91F08091BA004C
:100C0000833121F4CE0160E00E9429038091BA0073
:100C1000853109F009C3CE0161E00E94290304C3B4
:100C200088818093BA00888190E0FC013197ED3192
:100C3000F10508F0F9C2E65DFF4FEE0FFF1F0590CA
:100C4000F491E02D099481E08093C9001092CA00CC
:100C50008AE08093CB0081E48093CC0086E580938A
:100C6000CD0082E58093CE0089E48093CF0083E5B8
:100C70008093D00080E58093D1008FE58093D200EF
:100C80008DE48093D3008BE48093D40082E380933F
:100C9000D5008DE0BFC282E08093C9001092CA00E7
:100CA0008981883991F08E3909F057C08A8188236B
:100CB00029F41092C8001092C7004FC081E090E064
:100CC0009093C8008093C70048C08A81843A10F08E
:100CD00083EA8A838A81282F30E08091C100909135
:100CE000C2002817390761F03093C2002093C10079
:100CF0006091C1007091C20080E090E00E948F136B
:100D00000E9403052AC083E08093C9001092CA00A4
:100D10008981823991F0833938F4803909F454C2D9
:100D2000813909F051C209C0883959F0813A09F472
:100D30004BC2843909F048C202C089E006C082E390
:100D400004C08091C1009091C2008093CB003EC24C
:100D500085E08093C9001092CA0082E05BC28A815C
:100D60000E9417018B810E9417018C810E9417013C
:100D70000E9476019CE145C2898190E0A0E0B0E04C
:100D80008093AA009093AB00A093AC00B093AD0009
:100D9000BA2FA92F982F88272A8130E040E050E011
:100DA000822B932BA42BB52B8093AA009093AB009E
:100DB000A093AC00B093AD00BA2FA92F982F88272D
:100DC0002B8130E040E050E0822B932BA42BB52BFD
:100DD0008093AA009093AB00A093AC00B093AD00B9
:100DE000BA2FA92F982F88272C8130E040E050E0BF
:100DF000822B932BA42BB52B8093AA009093AB004E
:100E0000A093AC00B093AD0020E0898187FD21E084
:100E1000220F220F8091B5008B7F822B8093B5002B
:100E200086E097CF0E943C12FFC18AE08093C90000
:100E30001092CA00F9C1CE010E947E028091B500D5
:100E40008E7F8093B5001092B200EEC18DE460E019
:100E500070E040E00E945E01DC98C09A87B38E7516
:100E600087BB18BA81E18093C9001092CA0082E062
:100E70000E9499018091C5009091C600892B09F0CC
:100E8000D3C185C18B810E9417018C810E941701FB
:100E900080E00E94170180E00E941701898190E0A4
:100EA0000E94441282E155CF998180E02A8130E08E
:100EB000822B932B9093A2008093A1008B8180932F
:100EC000A3008C818093A4008D818093A5008E81E6
:100ED0008093A6008F818093A70088858093A800C7
:100EE00089858093A9008091AA009091AB00A09180
:100EF000AC00B091AD008093AE009093AF00A09392
:100F0000B000B093B10081E090E09093BE00809378
:100F1000BD00CE0160E0D1C0998180E02A81022F1E
:100F200010E0082B192B0F5F1F4F1093A2000093A6
:100F3000A100015010408B818093A700C0E0D0E059
:100F400040E2E42E38E2F32E4DC08091B50082FFDE
:100F50001FC08091AA009091AB00A091AC00B0910D
:100F6000AD009D01442755278091B6009091B700B0
:100F7000A0E0B0E0281739074A075B0749F0309333
:100F8000B7002093B6008DE4B90140E00E945E01F5
:100F90006091AA007091AB008091A70040E00E9490
:100FA0005E01FE01E753FF4F82838091A7008032EC
:100FB00019F4F092A70015C0E092A7008091AA0052
:100FC0009091AB00A091AC00B091AD000196A11D35
:100FD000B11D8093AA009093AB00A093AC00B09396
:100FE000AD002196C017D10709F0AFCF84E18093FF
:100FF000C9001092CA008091A1009091A200FC014A
:10100000E653FF4F10828F33910508F0A4C08E5F26
:101010000E949901BCC08A810E9417018B810E94A5
:1010200017018C810E9417010E9476019AE1E9C0A4
:1010300089810E9417018A810E9417018B810E9479
:1010400017018C810E94170189E1BAC0998180E063
:101050002A8130E0822B932B9093A2008093A100F1
:101060008B818093A3008C818093A4008D818093D9
:10107000A5008E818093A6008F818093A70088852C
:101080008093A80089858093A9008091AA009091FF
:10109000AB00A091AC00B091AD008093AE009093F6
:1010A000AF00A093B000B093B10081E090E09093C6
:1010B000BE008093BD00CE0161E00E942903109222
:1010C000BE001092BD00B0C0998180E02A81022F3D
:1010D00010E0082B192B0F5F1F4F1093A2000093F5
:1010E000A1008B818093A700C0E0D0E020C0609178
:1010F000AA007091AB008091A70040E00E945E01C1
:10110000FE01E753FF4F81838091AA009091AB00CD
:10111000A091AC00B091AD000196A11DB11D8093CE
:10112000AA009093AB00A093AC00B093AD002196C1
:10113000C017D107E1F686E18093C9001092CA007A
:101140008091A1009091A200FC01E653FF4F108214
:101150008F33910598F080E40E9499018091A1005D
:101160009091A200CE979093A2008093A10081E07D
:1011700090E09093C4008093C30056C08E5F0E949D
:1011800099018091BF009091C000019729F41092BD
:10119000C0001092BF0048C081E090E09093C00072
:1011A0008093BF0041C089810E9417018A810E94FB
:1011B00017018B810E9417018C810E94170187E122
:1011C0008093C9001092CA001092CB0083E022C025
:1011D0008A810E9417018B810E9417018C810E94D5
:1011E00017010E94760198E10CC08A810E941701C4
:1011F0008B810E9417018C810E9417010E94760149
:101200009BE19093C9001092CA008093CB0010928A
:10121000CC0084E00E94990107C01092C600109291
:10122000C500CE010E94B701DF91CF911F910F91B0
:10123000FF90EF9008951F920F920FB60F92112416
:101240002F933F934F935F936F937F938F939F93CE
:10125000AF93BF93EF93FF930E946011FF91EF91C3
:10126000BF91AF919F918F917F916F915F914F91BE
:101270003F912F910F900FBE0F901F90189587E20E
:1012800080931D0285E280931C0290E290931E02DF
:1012900010921F0228E030E03093210220932002B8
:1012A00083E28093290281E28093280290932A02AC
:1012B00010922B0230932D0220932C020895089552
:1012C000089581E2609135020E94640C08958BE2DA
:1012D00068E00E94640C88E262E10E94640C8FE284
:1012E00068E00E94640C8CE262E10E94640C8FE270
:1012F00061E00E94640C83E265E00E94640C089542
:101300000F931F938C0180E260E40E94640CF8014B
:101310006281605884E00E94640CF80182818093AD
:1013200034021F910F9108950F931F93CF93DF9372
:10133000EC0128853985121613060CF03FC08E810A
:101340009F81821793073CF583E268E00E94640C5A
:1013500000E010E012C0EA85FB85E20FF31F81E296
:1013600060810E94640C8E819F8101969F838E8391
:101370000F5F1F4F0830110539F02E813F8188859E
:101380009985281739073CF3288539858E819F81F7
:101390008217930724F087E261E00E94640C8B813E
:1013A000813031F4898165E00E94640C1B8206C0A3
:1013B000898161E00E94640C81E08B83DF91CF9191
:1013C0001F910F910895DF93CF9300D000D0CDB738
:1013D000DEB7FC012281938110922F0210922E021F
:1013E00081E080932B02923031F19330B9F191304A
:1013F00009F065C08091080280933002109231029A
:1014000088E092E090933302809332028681978144
:10141000089721F480E490E0978386838681978102
:101420008034910509F04BC088E090E09093310240
:101430008093300244C086819781909331028093DB
:101440003002822F90E0880F991FE0911A02F091EC
:101450001B02E80FF91F808191812DC02223B9F072
:10146000822F90E0880F991FE0919F00F091A000DB
:10147000E80FF91F0190F081E02DF0933302E09323
:1014800032028081809330021092310218C086812E
:1014900097818130910511F084E090E090933102C2
:1014A0008093300294E0998383E08A8389E08B8380
:1014B0009C83CE010196909333028093320288E29E
:1014C00092E00E9494090F900F900F900F90CF918F
:1014D000DF910895CF93DF9382E20E944D0CC82FD5
:1014E00085FF1AC083E268E00E94640CC6FF10C04A
:1014F00020912E0230912F02809130029091310282
:10150000281739072CF488E292E00E94940904C05D
:1015100087E261E00E94640CDF91CF9108950F9300
:101520001F9388E00E944D0C082F182F86FF18C0CB
:1015300085E060E00E94640C84E060E80E94640C36
:1015400080E260E00E94640C83E268E00E94640C28
:1015500087E261E00E94640C85E062E00E94640C16
:1015600014FF04C089E060EC0E94640C07FF04C013
:1015700089E060ED0E94640C1F910F9108958AE04C
:101580000E944D0C80FF03C00E946A0A089581FFEB
:101590000DC08AE20E944D0C8091F501813061F40A
:1015A000E091F801F091F9010995089582E30E9414
:1015B0004D0C8AE30E944D0C08958EE00E944D0C64
:1015C0000895EF92FF920F931F93DF93CF93CDB7C0
:1015D000DEB728970FB6F894DEBF0FBECDBF86E208
:1015E0000E944D0C86FF7FC08E010F5F1F4F49E0A8
:1015F000E42EF12CEC0EFD1E80911C020E944D0C7D
:10160000F80181938F01EE15FF05B1F78E010F5F91
:101610001F4F87E268E00E94640C83E268E00E944A
:10162000640C80E20E944D0C682F6F7780E20E946C
:10163000640C898190E0807690708032910509F485
:1016400040C080349105D1F1892BF1F5F8018181F9
:101650008630D9F0873048F48130F1F18130C8F01C
:10166000833079F1853081F521C0893019F18A30D4
:1016700018F4883049F505C08A3071F18B3021F5B6
:1016800020C081E26091350225C0C8010E94E309B3
:1016900023C083E268E00E94640C81E261E00E9462
:1016A000640C81E260E00E94640C0BC0C8010E94DF
:1016B000800912C0C8010E9467090EC0C8010E94BB
:1016C000770283E265E006C080E20E944D0C682F3D
:1016D000605880E20E94640CF80180818823D1F474
:1016E00083E265E015C02091300230913102809193
:1016F0002C0290912D028217930764F4109231020C
:101700001092300283E268E00E94640C87E261E09C
:101710000E94640C28960FB6F894DEBF0FBECDBFB2
:10172000CF91DF911F910F91FF90EF900895EF926D
:10173000FF920F931F93DF93CF93CDB7DEB7C054C3
:10174000D0400FB6F894DEBF0FBECDBF8CE00E9434
:101750004D0C80FF03C00E94E10A7AC081FF29C0BE
:101760008EE20E944D0C8DE20E944D0C89838E0109
:101770000F5F1F4F70E4E72EF12CEC0EFD1E0F5F84
:101780001F4F0E94420CF80180830E151F05B9F708
:1017900080919200813039F4E0919500F0919600AB
:1017A000CE01019609958FE268E00E94640C8FE2F9
:1017B0002AC082FF2CC086E30E944D0C85E30E9464
:1017C0004D0C89838E010F5F1F4F60E4E62EF12CD4
:1017D000EC0EFD1E0F5F1F4F0E94420CF80180832C
:1017E0000E151F05B9F780919300813039F4E0910F
:1017F0009700F0919800CE010196099587E368E083
:101800000E94640C87E361E00E94640C21C083FFA6
:101810001FC08EE30E944D0C8E010F5F1F4F51E4DD
:10182000E52EF12CEC0EFD1E8DE30E944D0CF8010F
:1018300081938F01EE15FF05B9F7809194008130F7
:1018400039F4E0919500F0919600CE01019609954A
:10185000C05CDF4F0FB6F894DEBF0FBECDBFCF9197
:10186000DF911F910F91FF90EF90089585B78260EF
:1018700085BF8BB780648BBF88EF81BB82B38863E1
:1018800082BB089582B398E1892782BB00000000E3
:1018900082B3892782BB83B308959FEF94BB85BB36
:1018A00082B398E6892782BB82B3892782BB000076
:1018B00014BA82B398E1892782BB0000000082B38A
:1018C000892782BB83B3089585BB8FEF84BB82B326
:1018D00098E6892782BB82B3892782BB65BB82B326
:1018E00098E2892782BB82B3892782BB0895089535
:1018F00082E18093080281E08093090280E191E017
:1019000090930B0280930A0210920C0210920D0227
:1019100010920E0288E080930F0210921102109232
:1019200010021092130210921202109215021092DD
:1019300014021092160210921702109218021092BE
:10194000190210929200109293001092940010923B
:10195000F5011092F6011092F7011092FF0110921A
:10196000FE0110929E0010929D0008959093110226
:101970008093100270931302609312025093150229
:1019800040931402089590931102809310020895D9
:1019900090931302809312020895909315028093FE
:1019A0001402089580930C02089580930D02089507
:1019B00080930E0208950F931F93CF93DF938C01B2
:1019C000CB01C091FE01D091FF0162E070E00E9466
:1019D000521210C0988129818A81823041F4E92F06
:1019E000F22F858190E08017910709F460870F80BE
:1019F000D885C02D209771F7DF91CF911F910F915E
:101A000008959C01E091FE01F091FF0114C0A081B6
:101A1000B1818281843061F4848190E082179307E0
:101A200039F4868190E08617970711F413964C934A
:101A30000780F085E02D309751F7089590939C0032
:101A400080939B000895BF92CF92DF92EF92FF9216
:101A50000F931F93CF93DF93EC01F62ED42EC22E5B
:101A6000B02EE091FE01F091FF01309799F489E0EA
:101A700090E00E947912FC019093FF018093FE0197
:101A8000D183C083F38210861782D282C4820583F9
:101A9000E6821AC0CF010780F085E02D3097D1F79C
:101AA0008C0189E090E00E947912FC01D80118961F
:101AB0009C938E931797D183C083F382D282C48282
:101AC000B582E68210861782DF91CF911F910F9128
:101AD000FF90EF90DF90CF90BF900895EF92FF922C
:101AE0001F93CF93DF937C01C0919D00D0919E0006
:101AF000209711F011E012C085E090E00E94791269
:101B0000FC0190939E0080939D00F182E0821282FE
:101B10001482138210E012C01F5FEC018B819C8144
:101B20000097D1F785E090E00E947912FC019C8338
:101B30008B83F182E082128314821382812FDF91E2
:101B4000CF911F91FF90EF900895EF92FF920F9326
:101B50001F93CF93DF93E0919D00F0919E0080E072
:101B600090E00380F481E02D01963097D1F7880F43
:101B7000991F0E94791280939F009093A000C091BA
:101B80009D00D0919E0001C0EC01E880F9808A811F
:101B900090E0880F991F00919F001091A000080FFE
:101BA000191FF701808190E00E947912F80180836B
:101BB000918320E030E016C08A8190E0880F991F61
:101BC000E0919F00F091A000E80FF91F0190F081D3
:101BD000E02DE20FF31FD701A20FB31F8C9180837A
:101BE0002F5F3F4FF701808190E02817390724F3DA
:101BF0008B819C81009741F6DF91CF911F910F91CE
:101C0000FF90EF9008956F927F928F929F92AF9284
:101C1000BF92CF92DF92EF92FF920F931F93CF93D9
:101C2000DF93E091FE01F091FF01CC24DD2409C097
:101C30008281823019F40894C11CD11C0780F08580
:101C4000E02D3097A9F7C601880F991F0E947912DD
:101C500080931A0290931B020894C108D108560180
:101C6000AA0CBB1C0894C11CD11CC1E0D0E0882484
:101C700099244FC0E091FE01F091FF01A9E0EA2E06
:101C8000F12C16C0A081B181848190E08C179D0752
:101C900019F48381E80EF11C15968C9115978C1719
:101CA00021F48281823009F44D010780F085E02D16
:101CB000309741F700911A0210911B020A0D1B1D6B
:101CC000C7010E947912D8018C9311969C9320E051
:101CD00030E0E0911A02F0911B02EA0DFB1D019029
:101CE000F081E02DE20FF31FD401A20FB31F8C91FE
:101CF00080832F5F3F4F2930310559F7E0911A0259
:101D0000F0911B02EA0DFB1D0190F081E02DE282B3
:101D10002196CC16DD060CF0ADCFE1E0EE2EF12CD5
:101D200079E0A72EB12C6624772488249924A5C0B5
:101D3000A091FE01B091FF0113C0ED91FC911197AC
:101D40008181823049F4858190E08E159F0521F4D0
:101D50008481682E772406C017960D90BC91A02D23
:101D6000109759F701E010E07DC04091FE015091BD
:101D7000FF0172C0DA01ED91FC91119781818430ED
:101D800009F065C016968C91169790E08017910720
:101D900009F05DC014968C9190E08E159F0509F0B6
:101DA00056C0DF019501BF01675F7F4FE0911A02C6
:101DB000F0911B02E80DF91D0190F081E02DE20F7A
:101DC000F31F8D9180832F5F3F4FA617B70771F7E1
:101DD000E9E0F0E0AE0EBF1EA091FE01B091FF0160
:101DE00034C012968C911297853059F514968C91C7
:101DF000149790E08E159F0521F515968C911597F7
:101E000090E080179107E9F4CD91DC91119795014D
:101E1000BE01695F7F4FE0911A02F0911B02E80D4D
:101E2000F91D0190F081E02DE20FF31F899180836D
:101E30002F5F3F4FC617D70771F787E090E0A80ED6
:101E4000B91E17960D90BC91A02D109751F6DA018E
:101E500017964D915C9118974115510509F08ACF5D
:101E60000F5F1F4F601671060CF07FCF0894E11CC6
:101E7000F11CE2E0F0E08E0E9F1ECE14DF040CF0A9
:101E800057CFDF91CF911F910F91FF90EF90DF908F
:101E9000CF90BF90AF909F908F907F906F9008955C
:101EA000AF92BF92CF92EF92FF920F931F93CF9377
:101EB000DF93EC015B01122FE091FE01F091FF0135
:101EC00018C0A081B181848190E0C817D90771F44E
:101ED000868190E08A159B0549F48281843031F433
:101EE00014968C9114978F5F14968C930780F085CD
:101EF000E02D309731F787E090E00E947912FC01E5
:101F000087E0808385E0818312830383F582E48206
:101F1000C682CF0167E045E02C2F0A2DEE240E94F7
:101F2000230DDF91CF911F910F91FF90EF90CF90F4
:101F3000BF90AF900895AF92BF92CF92DF92EF9291
:101F4000FF920F93FC01A114B10401F1423051053D
:101F500071F04330510599F041305105B9F481E0F9
:101F60008093F501B092F901A092F8010FC081E0D1
:101F70008093F601B092FB01A092FA0107C081E0C4
:101F80008093F701B092FD01A092FC0120583F4FD1
:101F9000CF010E94500F0F91FF90EF90DF90CF90F4
:101FA000BF90AF900895AF92BF92CF92DF92EF9221
:101FB000FF920F93FC014230510571F043305105FF
:101FC00099F041305105B9F481E080939200B092CC
:101FD0009600A09295000FC081E080939300B0928C
:101FE0009800A092970007C081E080939400B0927F
:101FF0009A00A0929900CF010E94500F0F91FF907C
:10200000EF90DF90CF90BF90AF900895EF920F9335
:10201000CF93DF93082FE62EA091FE01B091FF0130
:10202000C0E0D0E014C0ED91FC911197858180173C
:1020300051F412968C911297823029F484818F5F2B
:102040008483C82FD0E017960D90BC91A02D1097D7
:1020500051F789E090E00E947912FC0189E08083C9
:1020600084E08183E28213821482158216821782B1
:102070001086CF0169E044E0202F00E0EC2E0E94A2
:10208000230DCE01DF91CF910F91EF900895DF9254
:10209000EF92FF920F931F93CF93DF93E82E162FAB
:1020A000F42ED22EA091FE01B091FF01C0E0D0E04D
:1020B00014C0ED91FC91119785818E1551F4129603
:1020C0008C911297823029F484818F5F8483C82F8A
:1020D000D0E017960D90BC91A02D109751F789E094
:1020E00090E00E947912FC0189E0808384E0818382
:1020F000128313821482F582D68207831086CF0161
:1021000069E044E02E2D00E0EC2E0E94230DCE016C
:10211000DF91CF911F910F91FF90EF90DF90089585
:10212000EF920F931F93109119021F5F10931902E2
:1021300089E090E00E947912FC0189E0808389E0C7
:1021400090E09383828382E08183148215831682D8
:1021500080E887838AE18087CF0169E042E020E060
:1021600000E0EE240E94230D812F90E01F910F913B
:10217000EF9008950F931F93CF93DF938C01FC0191
:1021800001900020E9F7E81BF90BCF01880F991F98
:102190000E947912EC01F80101900020E9F7E01BA0
:1021A000F10BEE0FFF1FE88323E02983AC0120E051
:1021B00030E009C0F801E20FF31F8081FA0180834B
:1021C00011822F5F3F4FF80101900020E9F731970E
:1021D000E01BF10B4E5F5F4F2E173F0758F3CE0108
:1021E0000E946E0D90E0DF91CF911F910F910895A5
:1021F0000F931F93CF93DF938C01EB01CA010E94D1
:10220000BA10282FE091FE01F091FF0114C0A081C7
:10221000B1818281843061F4848190E080179107DC
:1022200039F4868190E08C179D0711F418962C9351
:102230000780F085E02D309751F7DF91CF911F9106
:102240000F910895CF93DF93EC01CB010E94BA1058
:10225000382FA091FE01B091FF0115C09C911196FD
:102260002C91119712968C911297823041F4E92F9C
:10227000F22F858190E08C179D0709F4368317961D
:102280000D90BC91A02D109749F7DF91CF91089543
:102290000E94BA101816190614F4809318020895B3
:1022A0000E94BA101816190614F4809317020895A4
:1022B0000E94BA101816190614F480931602089595
:1022C0001F93CF93DF9386E00E944D0CC82F84FFAD
:1022D00002C00E94DD0AC6FF02C00E94970BC2FF27
:1022E00002C00E94BF0AC1FF02C00E948F0A87E09D
:1022F0000E944D0C182F87E060E00E94640C87E07C
:10230000612F0E94640CDF91CF911F9108950E946C
:10231000030E0E94A50D0E943F0980E061E00E942B
:10232000640C80E00E944D0C80FDFBCF81E062E0F8
:102330000E94640C84E060E80E94640C80E260E427
:102340000E94640C83E268E00E94640C87E269E00A
:102350000E94640C8DE06FE00E94640C8BE06FE0E3
:102360000E94640C89E068ED0E94640C8FE063E3D6
:102370000E94640C87E066ED0E94640C85E062E0D8
:102380000E94640C80E06CEC0E94640C0895FC01D7
:1023900011821082778366837583648353834283BB
:1023A00053874287518740878FEF84870895FC01C8
:1023B0002081318182819381281739071CF020E028
:1023C00030E016C0A681B7816D9382859385019711
:1023D00021F482819381A81BB90B93878287B783ED
:1023E000A6838081918101969183808321E030E0F2
:1023F000C9010895FC0180819181892BE1F3A481B9
:10240000B5812D9180859185019721F482819381F9
:10241000A81BB90BB583A4839187808780819181A4
:10242000019791838083822F0895CF93DF93FC01DE
:10243000EB0180819181181619061CF02FEF3FEFF8
:1024400017C0A481B5812D9180859185019721F4D4
:1024500082819381A81BB90BB583A4839187808760
:1024600080819181019791838083288321E030E0EE
:10247000C901DF91CF910895DC9AF894E09188002A
:10248000F09189000995089520E030E040EA5FE08E
:1024900005C0FA013197F1F72F5F3F4F2817390731
:1024A000C4F3089597FB092E07260AD077FD04D0C0
:1024B0000CD006D000201AF4709561957F4F0895D6
:1024C000F6F7909581959F4F0895AA1BBB1B51E18C
:1024D00007C0AA1FBB1FA617B70710F0A61BB70B94
:1024E000881F991F5A95A9F780959095BC01CD0139
:1024F0000895CF93DF93BC018230910510F462E020
:1025000070E0A0913802B0913902ED01E0E0F0E016
:1025100040E050E021C0888199818617970769F4CF
:102520008A819B81309719F09383828304C09093B2
:10253000390280933802FE0134C06817790738F4F5
:102540004115510519F08417950708F4AC01FE01F7
:102550008A819B819C01E9012097E9F6411551058B
:10256000A9F1CA01861B970B049708F4BA01E0E0B1
:10257000F0E02AC08D919C91119784179507F9F48A
:102580006417750781F412968D919C91139730977B
:1025900019F09383828304C09093390280933802A8
:1025A000FD0132964FC0CA01861B970BFD01E80F53
:1025B000F91F6193719302978D939C9343C0FD0122
:1025C000828193819C01D9011097A1F680913602F6
:1025D00090913702892B41F480918C0090918D006D
:1025E000909337028093360240918E0050918F0075
:1025F0004115510541F44DB75EB780918A00909125
:102600008B00481B590B209136023091370224175A
:102610003507B0F4CA01821B930B8617970780F029
:10262000AB014E5F5F4F8417950750F0420F531F69
:102630005093370240933602F9016193719302C0BF
:10264000E0E0F0E0CF01DF91CF910895CF93DF93E9
:10265000009709F450C0EC0122971B821A82A091C6
:102660003802B0913902109709F140E050E0AC1700
:10267000BD0708F1BB83AA83FE0121913191E20FCE
:10268000F31FAE17BF0779F48D919C911197280F16
:10269000391F2E5F3F4F3983288312968D919C916D
:1026A00013979B838A834115510571F4D0933902A6
:1026B000C093380220C012968D919C911397AD0162
:1026C000009711F0DC01D3CFFA01D383C2832191AB
:1026D0003191E20FF31FCE17DF0769F488819981EA
:1026E000280F391F2E5F3F4FFA01318320838A81E3
:1026F0009B8193838283DF91CF910895FB01DC015D
:1027000002C001900D9241505040D8F70895E199D0
:10271000FECF9FBB8EBBE09A99278DB30895262FDD
:10272000E199FECF9FBB8EBB2DBB0FB6F894E29A0A
:0C273000E19A0FBE01960895F894FFCFC7
:10273C00422E5361757465720041565249535020B4
:10274C006D6B3220436C6F6E650030303030413031
:10275C003031323832353500007020003A0200003A
:00000001FF
