:107000000C942A380C94EA390C9447380C9447387D
:107010000C9447380C9447380C9447380C944738F4
:107020000C9447380C9447380C9447380C944738E4
:107030000C9447380C9447380C9447380C944738D4
:107040000C9447380C9447380C9447380C944738C4
:107050000C94473811241FBECFE5D8E0DEBFCDBF6A
:1070600010E0A0E6B0E0EAEEFEE702C005900D9267
:10707000A23FB107D9F711E0A2EFB0E001C01D9225
:10708000AA3AB107E1F70E94AF380C94733F0C9411
:1070900000380895089520E030E040EA5FE005C040
:1070A000FA013197F1F72F5F3F4F28173907C0F3E7
:1070B0000895F8948BB78F718BBF19BE6F988AB102
:1070C0008F718AB986B78E7F86BF4398339887B70A
:1070D0008F7787BFE39808950F931F93CF93DF9324
:1070E000BFB7F894E199FECF27E0660F771F881F9E
:1070F000991F2A95D1F783E0FB0180935700E8950B
:1071000007B600FCFDCF0CE011E0AB01A1E0E80107
:107110008881398120E0F901E80FF11DCF01FA01E2
:107120000C01A0935700E89511240E5F1F4F4E5F8E
:107130005F4FF1E00C381F0751F785E0FB018093AA
:107140005700E89507B600FCFDCF81E1809357001A
:10715000E895BFBFDF91CF911F910F9108950F93D5
:107160001F93CF93DF930E9459381ABAD49A11BA59
:1071700017BA14BA919A909A00EA1FE0C8010197D1
:10718000F1F7819B77C089B390E0EC01C071D070BA
:1071900084FD20C080E090E00E945E3F813041F499
:1071A000E199FECF80E090E060E00E94663F12C06F
:1071B0009198899AC8010197F1F7809B0BC0899833
:1071C000919AFE0184918F3F29F0E091F200F091B5
:1071D000F30009951092FA008BE890E06DE970E0F9
:1071E0000E94CE3C82E599E30E94DB3C80E690E081
:1071F0000E94753D81E690E00E94753D8AE790E02F
:107200000E94753D0E94173DF89481E08BBF82E09B
:107210008BBF78940E948C3C0E94D83D20EA3FE0CE
:10722000DC9A80E090E0F9013197F1F7019684361D
:107230009105C9F7DC9880E090E0F9013197F1F70A
:10724000019684369105C9F7DC9A80E090E0F90157
:107250003197F1F7019684369105C9F7DC9880E003
:1072600090E0F9013197F1F70196F3E080329F0742
:10727000C1F7D6CF20EA3FE0DC9A80E090E0F90148
:107280003197F1F7019641E0843F9407C1F7DC980C
:1072900080E090E0F9013197F1F70196843691058D
:1072A000C9F7EACF1F93CF93DF93EC011FB7F89490
:1072B0008091FB00823009F045C08091FE009091E2
:1072C000FF0080FF2AC01092FA008130910539F446
:1072D0001092F5001092F40020E030E008C0019711
:1072E000969587959093F5008093F400F5CFF9017A
:1072F000E45BFE4FDE01A20FB31F8C9180832F5FF2
:107300003F4F2034310599F76091F4007091F500FA
:1073100080E090E00E946C3812C081E08093FA0017
:1073200020E030E0F901E45FFE4FDE01A20FB31F61
:107330008C9180832F5F3F4F2034310599F7109255
:10734000FB0043C088818093FB00823079F429815F
:1073500030E03093FF002093FE009A8180E0822B82
:10736000932B9093FF008093FE002FC0813069F52E
:107370008091FA00882371F06091FE007091FF0007
:10738000769567957093FF006093FE0080E090E033
:107390000E946C388FE268E00E94BA3C8FE261E0A4
:1073A0000E94BA3C80E061E00E94BA3C0E945938D9
:1073B00081E08BBF1BBE1FBF81E180935700E89522
:1073C000E091F200F091F30009957894DF91CF916C
:1073D0001F9108951F920F920FB60F9211242F93B1
:1073E0003F934F935F936F937F938F939F93AF934D
:1073F000BF93EF93FF930E94B33DFF91EF91BF9135
:10740000AF919F918F917F916F915F914F913F913C
:107410002F910F900FBE0F901F90189587E28093C9
:107420008D0185E280938C0190E290938E01109201
:107430008F0128E030E0309391012093900183E2A6
:107440008093990181E28093980190939A01109220
:107450009B0130939D0120939C01089508958BE238
:1074600068E00E94BA3C88E263E10E94BA3C8FE285
:1074700068E00E94BA3C8CE262E10E94BA3C8FE272
:1074800061E00E94BA3C83E368E00E94BA3C80E37A
:1074900061E10E94BA3C83E265E00E94BA3C089533
:1074A0000F931F93CF93DF93EC0128853985121634
:1074B0001306DCF58E819F81821793071CF583E20A
:1074C00068E00E94BA3C00E010E00FC0EA85FB854E
:1074D000E80FF91F81E260810E94BA3C8E819F8192
:1074E00001969F838E830F5F1F4F8E819F8128851A
:1074F0003985083011051CF4821793073CF3821775
:10750000930724F087E261E00E94BA3C8B818130CE
:1075100031F4898165E00E94BA3C1B8206C08981F2
:1075200061E00E94BA3C81E08B83DF91CF911F9193
:107530000F910895DF93CF9300D000D0CDB7DEB781
:10754000DC0112969C91129713962C91139710922E
:107550009F0110929E0181E080939B01223009F1EE
:10756000233061F1213009F054C0E0910801F0911D
:10757000090180818093A0011092A101F093A301E1
:10758000E093A20116968D919C91179780349105F6
:1075900009F03FC088E090E09093A1018093A001A2
:1075A00038C016968D919C9117979093A101809366
:1075B000A00180910A0190910B0127C0E091F80091
:1075C000F091F900992399F0892F90E0880F991F85
:1075D000E80FF91F0190F081E02DF093A301E093F3
:1075E000A20180818093A0011092A10112C094E0B9
:1075F00099832A8389E08B839C8384E090E0909335
:10760000A1018093A001CE0101969093A3018093E4
:10761000A20188E991E00E94503A0F900F900F90DC
:107620000F90CF91DF910895CF93DF9382E20E9474
:10763000A33CC82F85FF1AC083E268E00E94BA3CD1
:10764000C6FF10C020919E0130919F018091A00142
:107650009091A101281739072CF488E991E00E9444
:10766000503A04C087E261E00E94BA3CDF91CF91BA
:1076700008958AE00E94A33C80FF03C00E94143B4F
:1076800008958AE20E94A33C82E30E94A33C8AE31D
:107690000E94A33C08958EE00E94A33C08950F939E
:1076A0001F9388E00E94A33C082F86EB90E00E9485
:1076B000CD3C102F06FF1CC085E060E00E94BA3C64
:1076C00084E060E80E94BA3C80E260E00E94BA3C3C
:1076D00083E268E00E94BA3C87E261E00E94BA3C23
:1076E00085E062E00E94BA3C82EC90E00E94CD3CD2
:1076F00014FF04C089E060EC0E94BA3C07FF04C09C
:1077000089E060ED0E94BA3C13FF04C08AEC90E06F
:107710000E94CD3C1F910F910895EF92FF920F931D
:107720001F93DF93CF93CDB7DEB728970FB6F894AA
:10773000DEBF0FBECDBF86E20E94A33C86FF7AC0AB
:107740008E010F5F1F4F39E0E32EF12CEC0EFD1E72
:1077500080918C010E94A33CF80181938F01EE156A
:10776000FF05B1F78E010F5F1F4F87E268E00E94AF
:10777000BA3C83E268E00E94BA3C80E20E94A33CEB
:10778000682F6F7780E20E94BA3C898190E09C016B
:10779000207630702032310581F12034310599F1A5
:1077A000232BC9F58F719070892B81F5F8018181A8
:1077B000863051F0873018F48530D1F409C0893013
:1077C00081F08B30A9F411C0C8010E949A3A2BC0F5
:1077D00080E260E40E94BA3CF8016281605884E073
:1077E00020C0C8010E942F3A1EC083E265E019C084
:1077F00080ED90E00E94CD3C0EC0C80168E971E0C8
:107800000E944A3803C0C8010E94493888E991E0C3
:107810000E94503A08C080E20E94A33C682F605842
:1078200080E20E94BA3CF80180818823D1F483E28F
:1078300065E015C02091A0013091A10180919C01CB
:1078400090919D018217930764F41092A101109208
:10785000A00183E268E00E94BA3C87E261E00E94F6
:10786000BA3C28960FB6F894DEBF0FBECDBFCF91BD
:10787000DF911F910F91FF90EF900895EF92FF928B
:107880000F931F93DF93CF93CDB7DEB7C054D04093
:107890000FB6F894DEBF0FBECDBF8CE00E94A33CB4
:1078A00080FF03C00E948D3B29C081FF27C08EE26C
:1078B0000E94A33C8DE20E94A33C89838E010F5F4E
:1078C0001F4F40E4E42EF12CEC0EFD1E0F5F1F4F06
:1078D0000E94983CF80180830E151F05B9F7E091CE
:1078E000FC00F091FD00CE01019609958FE268E061
:1078F0000E94BA3C8FE261E00E94BA3CC05CDF4F5C
:107900000FB6F894DEBF0FBECDBFCF91DF911F91B0
:107910000F91FF90EF90089585B7826085BF8BB778
:1079200080648BBF88EF81BB82B3886382BB08957C
:1079300082B398E1892782BB0000000082B38927C7
:1079400082BB83B308959FEF94BB85BB82B398E657
:10795000892782BB82B3892782BB000014BA82B315
:1079600098E1892782BB0000000082B3892782BB8F
:1079700083B3089585BB8FEF84BB82B398E68927D4
:1079800082BB82B3892782BB65BB82B398E2892719
:1079900082BB82B3892782BB089508959093090121
:1079A0008093080170930B0160930A011092F70015
:1079B0001092F60008959093FD008093FC000895C6
:1079C000EF92FF921F93CF93DF937C01C091F6005B
:1079D000D091F700209711F011E012C085E090E0FF
:1079E0000E94593EFC019093F7008093F600F182CB
:1079F000E08212821482138210E012C01F5FEC0139
:107A00008B819C810097D1F785E090E00E94593EE0
:107A1000FC019C838B83F182E082128314821382A7
:107A2000812FDF91CF911F91FF90EF900895EF92FA
:107A3000FF920F931F93CF93DF93E091F600F091A5
:107A4000F70080E090E00380F481E02D019630970C
:107A5000D1F7880F991F0E94593E8093F8009093A8
:107A6000F900C091F600D091F70001C0EC01E88068
:107A7000F9808A8190E0880F991F0091F800109199
:107A8000F900080F191FF701808190E00E94593E0C
:107A9000F8018083918320E030E016C08A8190E075
:107AA000880F991FE091F800F091F900E80FF91F95
:107AB0000190F081E02DE20FF31FD701A20FB31F59
:107AC0008C9180832F5F3F4FF701808190E02817D2
:107AD000390724F38B819C81009741F6DF91CF9188
:107AE0001F910F91FF90EF9008950F931F93CF93E5
:107AF000DF938C01FC0101900020E9F7E81BF90BF2
:107B0000CF01880F991F0E94593EEC01F8010190A6
:107B10000020E9F7E01BF10BEE0FFF1FE88323E0E5
:107B20002983AC0120E030E009C0F801E20FF31F27
:107B30008081FA01808311822F5F3F4FF80101900D
:107B40000020E9F73197E01BF10B4E5F5F4F2E17D6
:107B50003F0758F3CE010E94E03C90E0DF91CF91C7
:107B60001F910F9108951F9386E00E94A33C86FF0A
:107B700003C00E943E3C0EC082FF03C00E94393BFE
:107B800009C081FF03C00E944F3B04C084FF02C0B4
:107B90000E944B3B87E00E94A33C182F87E060E0E7
:107BA0000E94BA3C87E0612F0E94BA3C1F91089561
:107BB0000E940E3A80E061E00E94BA3C80E00E94A0
:107BC000A33C80FDFBCF81E062E00E94BA3C8FE0E5
:107BD00060E10E94BA3C84E060E80E94BA3C80E226
:107BE00060E40E94BA3C83E268E00E94BA3C87E20B
:107BF00069E00E94BA3C8DE06FE00E94BA3C8BE0E5
:107C00006FE00E94BA3C89E060E50E94BA3C87E0E0
:107C100066ED0E94BA3C85E062E00E94BA3C80E0DA
:107C20006CEC0E94BA3C089580EC8BB988E18AB96B
:107C300086E880BD10BC8AE189B98CB15F99FDCF1F
:107C400008955D9BFECF8CB908958CB10895FC0119
:107C500004C05D9BFECF31968CB980818823C9F723
:107C600008958A3310F4805301C087556A3310F4A5
:107C7000605301C067556F708295807F862B089591
:107C8000982F92959F708F709A3020F45D9BFECF55
:107C9000905D03C05D9BFECF995A9CB98A3020F459
:107CA0005D9BFECF805D03C05D9BFECF895A8CB982
:107CB0000895CF93DF93BC018230910510F462E008
:107CC00070E0A091A801B091A901ED01E0E0F0E021
:107CD00040E050E021C0888199818617970769F4B8
:107CE0008A819B81309719F09383828304C090939B
:107CF000A9018093A801FE0134C06817790738F400
:107D00004115510519F08417950708F4AC01FE01DF
:107D10008A819B819C01E9012097E9F64115510573
:107D2000A9F1CA01861B970B049708F4BA01E0E099
:107D3000F0E02AC08D919C91119784179507F9F472
:107D40006417750781F412968D919C911397309763
:107D500019F09383828304C09093A9018093A801B2
:107D6000FD0132964FC0CA01861B970BFD01E80F3B
:107D7000F91F6193719302978D939C9343C0FD010A
:107D8000828193819C01D9011097A1F68091A6016F
:107D90009091A701892B41F48091ED009091EE0024
:107DA0009093A7018093A6014091EF005091F000BD
:107DB0004115510541F44DB75EB78091EB009091AC
:107DC000EC00481B590B2091A6013091A701241704
:107DD0003507B0F4CA01821B930B8617970780F012
:107DE000AB014E5F5F4F8417950750F0420F531F52
:107DF0005093A7014093A601F9016193719302C0CA
:107E0000E0E0F0E0CF01DF91CF910895CF93DF93D1
:107E1000009709F450C0EC0122971B821A82A091AE
:107E2000A801B091A901109709F140E050E0AC170A
:107E3000BD0708F1BB83AA83FE0121913191E20FB6
:107E4000F31FAE17BF0779F48D919C911197280FFE
:107E5000391F2E5F3F4F3983288312968D919C9155
:107E600013979B838A834115510571F4D093A9011F
:107E7000C093A80120C012968D919C911397AD01DB
:107E8000009711F0DC01D3CFFA01D383C283219193
:107E90003191E20FF31FCE17DF0769F488819981D2
:107EA000280F391F2E5F3F4FFA01318320838A81CB
:107EB0009B8193838283DF91CF910895E199FECFD7
:107EC0009FBB8EBBE09A99278DB30895262FE19929
:107ED000FECF9FBB8EBB2DBB0FB6F894E29AE19A02
:0A7EE0000FBE01960895F894FFCF3D
:107EEA000055534270726F6720456D626564646520
:107EFA006450726F6A656374730075736270726F2F
:107F0A006742617365204D6F6465001201100100BC
:107F1A000000088117620C00000102000109021921
:107F2A0000010100A01A0904000001000000000776
:107F3A00050202400000616C74206576656E740D5E
:107F4A000A0072657365740D0A00656F700D0A0088
:107F5A00756E737570706F72746564207374616E78
:107F6A0064617264207265710A0D002000AA010022
:027F7A00000005
:040000030000700089
:00000001FF
